:020000040000fa
:080000000002040000000000f2
:020000040000fa
:100400000fb220000ebf20000e0188000000000087
:100410000c000700e0692200010020001100070025
:10042000000020000000e000020032000000020096
:10043000000000004a230200000000000040da0033
:100440000000fe004440a900e09420000000e0000d
:100450000300320000002000a00188004440a800f2
:100460000000060091018800800078000000eb0089
:1004700015003700e280400032a0b4009101ba00bc
:10048000e280400032a0b4009102ba00e280400055
:1004900032a0b4000002eb00472bde00f507b200eb
:1004a000602ce10004003a000059eb008301e900f0
:1004b000fdff3e00040037006128e100010032002a
:1004c0000082eb00040007001101ba000200e00006
:1004d000e8ff3a00000006003159ba008301e90044
:1004e0000c0032002159ba008301e90008003200f3
:1004f0000400e00003003a00e280400032a0b400b3
:10050000f5ff370011d9ba008301e900faff3a007c
:100510008100e800e180400032a0b4000000060045
:100520000001780000c2b300010037000201e800ba
:100530009240780080cf5000fcff3200e9cf50009d
:10054000faff3200d0c2b30080cf500003003a005f
:100550000201e80014c0b300050037000042eb00c0
:10056000b0c2b30080cf500001003a000201e800a1
:100570008000eb0005fd2f00040037006a08b90079
:1005800000804100850040000201e8009201fb006c
:1005900005804100e90f5000f8ff36000404e00038
:1005a000010032008100ea0001007800000006002e
:1005b0000002780081017800010078001100090034
:1005c0000280d8008400e8000000e0000200320051
:1005d00001027800f9ff37008048eb0011000900a4
:1005e0008281d8008000fd0081017800e94f500031
:1005f000010034006740400005c3b30005524000cd
:100600000100e000f5ff3a00040078000000060059
:10061000881f7800000478000100e0000200350027
:10062000800178000400370080017800d0c2b30058
:10063000805978008100ea0003007800dcff0700a1
:10064000080078004f047800000006008001eb00ed
:1006500002003700817178008301e800828f510029
:10066000fcff3a00000006008001780000017800dd
:10067000010037000201e8001204e000fdff3a002b
:1006800031407800005978000004e000fcff3a0097
:10069000030078000000060010417800b1415100cd
:1006a00003003a000000e8000204e000faff3a000c
:1006b0000300fb00000006008001780000017800c4
:1006c00031407800005978000004e000fcff3a0057
:1006d0000300780000000600800078003004e0008d
:1006e000feff3a00010050000000e9000000060093
:1006f000810178000002eb000b003700e440780035
:100700000104e000030032000402e80093cf50002f
:10071000040032008180fb001380fb000080500049
:10072000000006008301e800820f5200f3ff3a0048
:1007300000000500889fbe000004be000d003700c9
:1007400009007800e4ff0700000178000800be00ff
:10075000e7ff07000000e00002003a000800780010
:10076000090037009900fb000800e8002500070099
:10077000000478000800e000020032001804e000e5
:10078000efff3a000000eb004f04be00000006003f
:10079000889fbe000004be000000e00003003a0095
:1007a000f85880000800e000130032000800be0086
:1007b00030000700000444001804e00004003a0080
:1007c0000000eb00f0588800000478000a003700b1
:1007d0000800be001300070000004400f058880025
:1007e0001004e000020032000058eb000100370066
:1007f0000000eb00f0588800080078004f04be00ad
:100800000000060010417800814f510004003200c2
:100810000000e8000204e000faff3a000000eb00ec
:1008200000000600889fbe008a9fbe0080057800f9
:10083000010578006044b8000200370061044400fc
:10084000e0844c006b407c000004e00005003200b6
:100850008000fb000a007800eaff07000000e000cb
:10086000f6ff32000800be004f05be004f04be0078
:1008700000000600889fbe008a9fbe0080057800a9
:10088000010578006044b8000200370061044400ac
:10089000e0844c006b407c000004e0000500320066
:1008a0008000fb000a007800d6ff07000000e0008f
:1008b000f6ff3a000800be004f05be004f04be0020
:0408c000000006002e
:020000040000fa
:100008003c2700000c2700001227000018270000da
:100018001e2700003c2700003c2700003c2700006a
:100028003c2700003c2700003c270000841e0000fd
:100038003c2700003c2700003c2700003c2700002c
:100048003c2700003c2700003c27000088120000e5
:10005800ca2000003c2700003c2700003c27000085
:100068003c2700003c2700003c2700003c270000fc
:100078003c2700003c2700003c2700003c270000ec
:100088003c2700003c2700003c2700003c270000dc
:100098003c2700003c2700006c1a0000de2000000e
:1000a8003c2700003c2700003c2700003c270000bc
:1000b8003c2700003c2700003c2700003c270000ac
:1000c8003c2700003c2700003c2700003c2700009c
:1000d8003c2700003c2700003c2700003c2700008c
:1000e8003c2700003c2700003c2700003c2700007c
:1000f8003c2700003c2700003c2700003c2700006c
:100108003c2700003c2700003c2700003c2700005b
:100118003c2700003c2700003c2700003c2700004b
:100128003c2700003c2700003c2700003c2700003b
:100138003c2700003c2700003c2700003c2700002b
:100148003c2700003c2700003c2700003c2700001b
:100158003c2700003c2700003c2700003c2700000b
:100168003c2700003c2700003c2700003c270000fb
:100178003c2700003c2700003c2700003c270000eb
:100188003c2700003c2700003c2700003c270000db
:100198003c2700003c2700003c2700003c270000cb
:1001a8003c2700003c2700003c2700003c270000bb
:1001b8003c2700003c2700003c2700003c270000ab
:1001c8003c2700003c2700003c2700003c2700009b
:1001d8003c2700003c2700003c2700003c2700008b
:1001e8003c2700003c2700003c2700003c2700007b
:0801f8003c2700003c27000039
:020000040000fa
:100208003c270000242700002a2700003027000090
:10021800362700003c2700003c2700003c27000050
:100228003c2700003c2700003c270000841e0000fb
:100238003c2700003c2700003c2700003c2700002a
:100248003c2700003c2700003c27000088120000e3
:10025800ca2000003c2700003c2700003c27000083
:100268003c2700003c2700003c2700003c270000fa
:100278003c2700003c2700003c2700003c270000ea
:100288003c2700003c2700003c2700003c270000da
:100298003c2700003c2700006c1a0000de2000000c
:1002a8003c2700003c2700003c2700003c270000ba
:1002b8003c2700003c2700003c2700003c270000aa
:1002c8003c2700003c2700003c2700003c2700009a
:1002d8003c2700003c2700003c2700003c2700008a
:1002e8003c2700003c2700003c2700003c2700007a
:1002f8003c2700003c2700003c2700003c2700006a
:100308003c2700003c2700003c2700003c27000059
:100318003c2700003c2700003c2700003c27000049
:100328003c2700003c2700003c2700003c27000039
:100338003c2700003c2700003c2700003c27000029
:100348003c2700003c2700003c2700003c27000019
:100358003c2700003c2700003c2700003c27000009
:100368003c2700003c2700003c2700003c270000f9
:100378003c2700003c2700003c2700003c270000e9
:100388003c2700003c2700003c2700003c270000d9
:100398003c2700003c2700003c2700003c270000c9
:1003a8003c2700003c2700003c2700003c270000b9
:1003b8003c2700003c2700003c2700003c270000a9
:1003c8003c2700003c2700003c2700003c27000099
:1003d8003c2700003c2700003c2700003c27000089
:1003e8003c2700003c2700003c2700003c27000079
:0803f8003c2700003c27000037
:020000040000fa
:1008c400415400002b430000495000004d550000e6
:1008d400583d000031000000415400002b4300004b
:1008e4004950000053450000525600004552000094
:1008f4003d3100002c38000030000000415400005d
:100904002b430000575100004150000000410000fb
:10091400542b00004349000050530000455200008e
:1009240056450000523d00003000000041540000d4
:100934002b5200005354000000410000542b0000cf
:100944004349000050530000544100005254000039
:100954003d3000002c2200005443000050220000cf
:100964002c220000656c000065670000616e0000c9
:10097400742d00006d6f00006d6500006e74000042
:100984002d380000343300002e6100007070000028
:10099400737000006f7400002e6300006f6d000020
:1009a400222c00003830000000410000542b0000cd
:1009b400435700004a410000503d0000220000005f
:1009c400222c0000220000002200000041540000fc
:1009d4002b43000049500000534500004e440000e2
:1009e4003d3000002c000000504f00005354000024
:1009f400202f0000616400006d6900006e2000007b
:100a040048540000545000002f3100002e310000e3
:100a1400004800004f530000543a000020650000d5
:100a24006c650000676100006e7400002d6d0000ad
:100a34006f6d0000656e0000742d000038340000f6
:100a4400332e00006170000070730000706f0000ae
:100a5400742e0000636f00006d000000436f0000ff
:100a64006e740000656e0000742d00004c6500007b
:100a74006e670000746800003a20000000700000f7
:100a8400726f000064750000637400004944000044
:100a94003d00000026610000646400003d00000089
:100aa40026640000656c00003d000000312e00004b
:100ab400312e0000312e000031000000002c000017
:100ac4000048000054540000502f0000312e000054
:100ad4003120000032300000302000004f4b000075
:100ae400004300006f6e0000746500006e74000027
:100af4002d54000079700000653a00002074000055
:100b040065780000742f0000687400006d6c0000ac
:100b14003b20000063680000617200007365000000
:100b2400743d000075740000662d0000380000005c
:100b34003c680000746d00006c2000006c610000d3
:100b44006e6700003d220000656e0000223e00003a
:100b54003c68000065610000643e00003c740000d5
:100b6400697400006c6500003e4c00006f63000077
:100b7400616c000020530000444c00003c2f000036
:100b840074690000746c0000653e00003c73000052
:100b9400747900006c6500003e2a00007b6600004a
:100ba4006f6e0000742d0000666100006d69000026
:100bb4006c7900003a200000547200006562000065
:100bc4007563000068650000742000004d53000048
:100bd4003b6300006f6c00006f7200003a2000005d
:100be4007768000069740000653b00007d680000c0
:100bf400746d00006c2c0000626f000064790000ca
:100c04007b6d000061720000676900006e3a0000ad
:100c14002030000020610000757400006f3b00006c
:100c24006d6900006e2d0000776900006474000097
:100c3400683a000020360000303000007078000070
:100c44003b6d0000696e00002d68000065690000be
:100c540067680000743a0000203100003030000062
:100c6400253b000062610000636b000067720000b6
:100c74006f7500006e6400003a2000006c6900008b
:100c84006e650000617200002d6700007261000053
:100c940064690000656e0000742800007768000035
:100ca40069740000652c0000234500003335000002
:100cb40039330000302900003b7d000074610000de
:100cc400626c0000657b000074610000626c0000cf
:100cd400652d00006c610000796f000075740000e0
:100ce4003a2000006669000078650000643b00005b
:100cf4006d61000072670000696e00003a20000018
:100d040061750000746f00003b7d00002e730000cd
:100d14007472000065740000636800002c690000b0
:100d24006e700000757400005b7400007970000040
:100d3400653d000022740000657800007422000004
:100d44005d2c0000696e000070750000745b00008b
:100d540074790000706500003d220000706100009d
:100d640073730000776f000072640000225d00005e
:100d74007b77000069640000746800003a2000007a
:100d840031300000302500003b7d00002e63000060
:100d9400656e000074650000727b000074650000dd
:100da400787400002d6100006c690000676e00001b
:100db4003a200000636500006e7400006572000054
:100dc4003b7d00002e72000069670000687400001b
:100dd4007b74000065780000742d0000616c0000d5
:100de400696700006e3a0000207200006967000025
:100df400687400003b7d0000746400002c690000ee
:100e04006e700000757400007b6200006163000076
:100e14006b670000726f0000756e0000643a00009a
:100e2400207200006762000061280000302c00007e
:100e3400302c0000302c00002e330000293b000031
:100e44007061000064640000696e0000673a00008d
:100e540020330000253b00007d2e00006c61000063
:100e6400626500006c7b0000706100006464000037
:100e7400696e0000673a000020330000253b000043
:100e84007d2e000062690000674600006f6e00005e
:100e9400747b0000666f00006e7400002d73000008
:100ea400697a0000653a0000203400003030000008
:100eb400253b00007d230000636f00006e7400007a
:100ec400656e0000747b0000666f00006e740000a5
:100ed4002d730000697a0000653a00002033000099
:100ee40030300000253b00007d6900006e7000007a
:100ef400757400007b6600006f6e0000742d0000a6
:100f0400736900007a6500003a2000003131000066
:100f1400352500003b7d00002e620000746e000049
:100f24007b63000075720000736f0000723a00006a
:100f3400207000006f6900006e740000657200008c
:100f44003b7d00002e620000746e000020740000df
:100f5400643a0000686f000076650000727b000050
:100f640062610000636b0000677200006f7500002f
:100f74006e6400003a2000007267000062610000a5
:100f8400283000002c3000002c3000002c2e0000f3
:100f9400352900003b7d00002e620000746e0000c5
:100fa40020740000642e0000736500006c6500006e
:100fb40063740000656400007b62000061630000ec
:100fc4006b670000726f0000756e0000643a0000e9
:100fd400207200006762000061280000302c0000cd
:100fe400302c0000302c00002e370000293b00007c
:100ff4007d3c00002f730000747900006c650000d4
:101004003e3c00002f68000065610000643e000063
:101014003c6200006f640000793e00003c740000f4
:10102400616200006c650000206300006c610000d8
:10103400737300003d2200007374000072650000a9
:1010440074630000682200003e3c000074720000db
:10105400206300006c610000737300003d220000f7
:1010640062690000674600006f6e00007420000093
:10107400636500006e74000065720000223e00008b
:101084003c74000064200000636f00006c73000077
:10109400706100006e3d000022330000223e00001b
:1010a400536d00006172000074200000446f000062
:1010b4006f720000204c00006f6300006b3c000066
:1010c4002f740000643e00003c2f00007472000086
:1010d4003e3c000074720000206300006c6100005c
:1010e400737300003d22000062690000674600003f
:1010f4006f6e000074200000627400006e20000017
:10110400636500006e74000065720000223e0000fa
:101114003c740000642000006f6e0000636c0000eb
:10112400696300006b3d00002261000064640000fc
:1011340028290000223e00002b3c00002f740000f0
:10114400643e00003c740000642000006f6e0000e8
:10115400636c0000696300006b3d000022640000c2
:10116400656c000028290000223e000026230000b0
:101174007832000032310000323c00002f7400004d
:10118400643e00003c740000642000006f6e0000a8
:10119400636c0000696300006b3d00002273000073
:1011a4006574000028290000223e000057690000f1
:1011b4002d460000693c00002f740000643e0000ce
:1011c4003c2f0000747200003e3c0000747200006a
:1011d4003e3c00007464000020690000643d00008f
:1011e400226300006f6e0000746500006e740000de
:1011f40022200000636f00006c7300007061000027
:101204006e3d00002233000022200000636c0000c9
:1012140061730000733d0000227300006d610000e3
:101224006c6c0000466f00006e740000223e0000eb
:10123400536500006c65000063740000206f0000bb
:101244006e650000206f00006620000074680000d6
:10125400652000006f700000746900006f6e00006c
:1012640073200000616200006f760000653c00009e
:101274002f740000643e00003c2f000074720000d4
:101284003e3c00002f740000616200006c650000a9
:101294003e3c00007363000072690000707400003b
:1012a4003e7600006172000020630000746e00004e
:1012b4003d6400006f630000756d0000656e000002
:1012c400742e000067650000744500006c65000022
:1012d4006d6500006e7400004279000049640000ee
:1012e40028270000636f00006e740000656e000024
:1012f40074270000292c000078680000723d00006b
:101304006e65000077200000584d00004c48000036
:10131400747400007052000065710000756500006f
:1013240073740000282900003b76000061720000fd
:1013340020610000646400003d660000756e0000da
:1013440063740000696f00006e280000297b0000b0
:101354007265000071280000275000004f53000000
:10136400542700002c2700002f6500006e72000037
:101374006f6c00006c2700002c6e0000756c000080
:101384006c2900003b7d00002c640000656c0000ab
:101394003d660000756e000063740000696f000014
:1013a4006e280000297b000072650000712800008f
:1013b400275000004f530000542700002c27000042
:1013c4002f640000656c0000657400006527000050
:1013d4002c270000272900003b7d00002c7300000f
:1013e400657400003d660000756e000063740000c3
:1013f400696f00006e280000297b00006374000000
:101404006e2e0000696e00006e65000072480000d8
:10141400544d00004c3d0000273c0000646900006e
:1014240076200000636c000061730000733d0000cf
:10143400226c000061620000656c0000223e000026
:101444004e650000747700006f7200006b2000008e
:101454004e6100006d6500003c6900006e70000084
:101464007574000020690000643d000022730000d0
:101474007369000064220000207400007970000089
:10148400653d0000227400006578000074220000ad
:101494003e3c00002f640000697600003e3c0000e2
:1014a4006469000076200000636c00006173000032
:1014b400733d0000226c000061620000656c000056
:1014c400223e00005061000073730000776f00003b
:1014d400726400003c6900006e70000075740000c6
:1014e40020690000643d0000226e00006574000065
:1014f400505700002220000074790000706500003d
:101504003d2200007061000073730000776f0000db
:1015140072640000223e00003c2f00006469000059
:10152400763e00003c640000697600002063000001
:101534006c610000737300003d2200006c610000c8
:10154400626500006c20000072690000676800009a
:10155400742200003e3c0000696e000070750000bb
:10156400742000006f6e0000636c0000696300006b
:101574006b3d00002275000070640000617400007f
:101584006528000029220000207400007970000002
:10159400653d00002262000075740000746f000055
:1015a4006e22000020760000616c0000756500006a
:1015b4003d22000055700000646100007465000065
:1015c400223e00003c2f000064690000763e0000cb
:1015d400273b00007d2c0000757000006461000052
:1015e400746500003d660000756e000063740000c1
:1015f400696f00006e280000297b000076610000fe
:101604007220000073730000696400003d640000f0
:101614006f630000756d0000656e0000742e00009d
:1016240067650000744500006c6500006d6500008e
:101634006e7400004279000049640000282700000d
:101644007373000069640000272900002c6e0000f9
:1016540065740000505700003d6400006f63000093
:10166400756d0000656e0000742e00006765000053
:10167400744500006c6500006d6500006e74000028
:101684004279000049640000282700006e650000cc
:101694007450000057270000293b000072650000c9
:1016a40071280000275000004f5300005427000009
:1016b4002c2700002f730000657400005769000098
:1016c40066690000272c0000276e00007373000079
:1016d400696400003d2700002b730000736900005b
:1016e400642e0000766100006c750000652b00001c
:1016f400272600007061000073730000773d00002e
:10170400272b00006e65000074500000572e000067
:10171400766100006c750000652b00002724000032
:10172400272900003b7d00002c7200006571000039
:101734003d660000756e000063740000696f000070
:101744006e2800006d650000746800006f6400007e
:101754002c70000061670000652c000064610000cb
:1017640074610000297b000078680000722e00007c
:101774006f700000656e0000286d00006574000045
:10178400686f0000642c0000706100006765000051
:101794002c74000072750000652900003b7800007d
:1017a400687200002e6f00006e7200006561000018
:1017b40064790000737400006174000065630000c4
:1017c400686100006e670000653d000066750000fa
:1017d4006e630000746900006f6e00002829000029
:1017e4007b69000066200000287800006872000011
:1017f4002e720000656100006479000053740000db
:1018040061740000653d00003d3d00003429000086
:101814007b76000061720000207400006f2c0000d1
:10182400727400003d780000687200002e7200009f
:1018340065730000706f00006e7300006554000053
:1018440065780000743b0000637400006e2e000095
:10185400696e00006e65000072480000544d00007f
:101864004c3d0000273c0000703e0000272b000088
:10187400727400002e720000657000006c6100003c
:101884006365000028270000242700002c2700009f
:10189400272900002b2700003c2f0000703e000089
:1018a400273b0000696600002028000072740000d5
:1018b4002e6900006e640000657800004f66000029
:1018c4002827000024270000293d00003d3d00009a
:1018d4002d31000020260000262000007274000034
:1018e4002e6900006e640000657800004f660000f9
:1018f400282700004c6900006e6b000027290000b7
:101904003d3d00003d2d0000312900002074000001
:101914006f3d00007365000074540000696d0000a1
:10192400656f00007574000028660000756e000085
:1019340063740000696f00006e280000297b0000ba
:1019440072650000712800006d6500007468000075
:101954006f6400002c70000061670000652c0000bb
:101964006461000074610000297d00002c310000d6
:1019740030300000302900003b7d00007d3b00003a
:1019840078680000722e0000736500006e64000029
:101994002864000061740000612900003b7d0000a0
:1019a4003b3c00002f73000063720000697000006c
:1019b400743e00003c2f0000626f00006479000058
:1019c4003e3c00002f680000746d00006c3e000077
:1019d400003100002e200000506c00006163000004
:1019e40065200000666900006e67000065720000f3
:1019f40020000000322e000020520000656d00001f
:101a04006f76000065200000666900006e670000c4
:101a14006572000020000000332e000020500000fa
:101a24006c6100006365000020660000696e0000c0
:101a34006765000072200000003400002e200000c2
:101a4400526500006d6f000076650000206600009e
:101a5400696e000067650000722000000035000018
:101a64002e200000506c000061630000652000001f
:101a7400666900006e6700006572000020000000c7
:101a84002069000073200000656e0000726f000082
:101a94006c6c000065640000242000000045000018
:101aa400727200006f7200003a200000547200004d
:101ab4007920000061670000616900006e2e00005b
:101ac400242000000054000054500000002b0000ab
:101ad4004950000044000000474500005400000045
:101ae400504f000053540000006500006e72000067
:101af4006f6c00006c000000646500006c65000001
:101b040074650000007300006574000057690000ec
:101b1400666900000073000073690000006f000034
:101b240064750000003a00000000000045720000e7
:101b3400726f0000723a0000204400006f6f0000d2
:101b44007220000069730000206300006c6f0000c5
:0c1b540073650000642e0000000000001b
:020000040000fa
:101b60000200fa00004f7800100020000108070072
:101b7000803e2000090807001e40780090eab70068
:101b800010c0b3009e4f100002003a00070007008b
:101b90000400370020c0b3009e4f100001003a003f
:101ba000190007000080fa00000006000000fa009b
:101bb000ec08070020032000f807070011c0b3005d
:101bc000204628007a00070020032000f3070700c2
:101bd00011c0b300e0462800750007002003200074
:101be000ee07070011c0b30000482800700007008e
:101bf00020032000e90707000040eb000bebb700d3
:101c00000080fa00000006000200fa000040eb002d
:101c100010479800d308070010c0b3000debb700c1
:101c200011c0b30090482800610007002003200085
:101c3000da07070011c0b300804928005c000700e4
:101c4000007d2000d5070700c608070011c0b300bb
:101c5000204628005600070040062000cf07070056
:101c60000040eb000debb700f00020007608070005
:101c70003d00070010c0b300004f78000c00370093
:101c8000a60807000004e00009003200f000200070
:101c90006d080700340007001e4fe80030c0b30095
:101ca0009e4f10000200360010c0b300104798008d
:101cb0000dcbbf000004e00003003a001e4090007e
:101cc000e14f5000eeff3a0020032000b307070069
:101cd00011c0b30020462800350007004006200050
:101ce000ae0707000040eb000debb700a00020009e
:101cf0005508070011c0b300f04928002c00070068
:101d00000e003700850807000004e0000b003200d9
:101d1000a00020004c08070011c0b300f0492800c3
:101d2000230007001e4fe80030c0b3009e4f100094
:101d30000200360010c0b300104798000dcbbf0062
:101d40000004e00003003a001e409000e14f500004
:101d5000ecff3a00420a0700200320008f0707002b
:101d60000080fa00000006000000fa008040eb004e
:101d7000704d28000e0007008040eb0030a22000cc
:101d80000b0007008040eb00204e280008000700f1
:101d90008040eb0070a320000500070011c0b300d5
:101da000604e2800020007000080fa0000000600d4
:101db0000600fa001007980041479800280a07001b
:101dc0000000eb00000f7800090037001e007800cb
:101dd000800078001e0090000080400010407800d5
:101de000960807000040eb00700907001e0fe8008e
:101df0001e007800800078001e00900000804000e7
:101e0000104078000004e000f0ff3a000000eb0012
:101e1000000f780005003700d0c0b3008708070026
:101e2000a0c0b300850807001e0fe8004e409000d8
:101e30000080fb009e0f5000f7ff3c00080a0700df
:101e40000080fa00000006001c00fa000000eb0011
:101e5000000f98000000eb0070079800804e2800eb
:101e600060079800604f280050079800b050280085
:101e700040079800005328003007980010542800ad
:101e800020079800c054280010079800205528000b
:101e9000000f7800a0000700ca0007005e00900055
:101ea0000dfa0700800078007e009000008040005e
:101eb0000080e800700798004e00900006fa0700c6
:101ec000800078007e009000008040000080e800e4
:101ed000700798003e009000fff90700800078002e
:101ee0007e0090000080400070079800720047005c
:101ef000f9f90700800078007e0090000080400023
:101f000064004000700798002e009000f2f907006e
:101f1000800078007e009000008040006700400054
:101f2000700798002e009000ebf907008000780001
:101f30000e0890000080400067004000000f9800ed
:101f400054cabf000004e0000c0032001e009000e4
:101f5000e1f90700800078000e0890000080400042
:101f6000000f98001e009000dbf907008000780049
:101f70007e009000008040007007980054cabf00a7
:101f80000004e0000c00320040a52000d2f9070058
:101f9000800078000e08900000804000000f98003c
:101fa00040a52000ccf90700800078007e0090005a
:101fb000008040007007980072cabf000004e00073
:101fc0000c0032001e007800c3f907008000780082
:101fd0000e08900000804000000f98001e0078005e
:101fe000bdf90700800078007e009000008040006e
:101ff0007007980072cabf000004e0000c003200b5
:1020000020a72000b4f90700800078000e08900097
:1020100000804000000f980020a72000aef90700c4
:10202000800078007e0090000080400070079800db
:102030007e0090006600400070079800770047001f
:10204000a2002000fe00900071f907007200470016
:10205000a20020008e0890006df907008040eb0080
:102060006e00900052ff07007700470011c0b300d8
:102070004fff070011c0b3005e0090004cff070047
:1020800011c0b3004e00900049ff07008040eb00f4
:102090003e00900046ff07007200470021c0b300d9
:1020a00043ff07008040eb002e00900040ff070038
:1020b0008040eb00805528003dff070054cabf0058
:1020c0000004e000060032008040eb001e0090009b
:1020d00037ff07008040eb0040a5200034ff0700d9
:1020e00072cabf000004e000060032008040eb002e
:1020f0001e0078002eff07008040eb0020a7200084
:102100002bff070031c0b3000056280028ff07004e
:102110000080fa00000006000200fa000040eb0018
:10212000004f78001b0037009e80fb00c0ae2000ef
:1021300000804000104078008080fb00a20020005a
:10214000e0a4200032f907001e04e00004003a0079
:10215000e1a4200040a5200057f907000c0037003b
:1021600040a520005cf907008000780040a5200011
:1021700080804000c0c2b300804878000040eb007f
:1021800090409800e1a4200040a5200036f9070007
:102190001e4fe8009e80fb00c0ae20000080400083
:1021a00010407800e14f4000dfff3a001e04e000dd
:1021b00002003a000040eb0054eab7000080fa0049
:1021c000000006000200fa000040eb00004f78001b
:1021d000150037009e80fb0060af200000804000ab
:1021e000104078008080fb00a200200010a5200095
:1021f00007f907001e04e00004003a0011a52000c2
:1022000020a720002cf907000600370011562800ef
:1022100020a7200014f9070011a5200020a7200006
:1022200011f907001e4fe8009e80fb0060af200000
:102230000080400010407800e14f4000e5ff3a0088
:102240001e04e00002003a000040eb0072eab70012
:102250000080fa00000006001800fa00300f980015
:102260000000eb00400798000000eb0050079800ca
:10227000030037005e0090000000e800500798005f
:102280005e009000800078003e08900000804000d2
:10229000104078000004e000f6ff3a005e00900075
:1022a0008000e9006c004700a2002000d8f8070079
:1022b000804e2800300798003056280020079800ec
:1022c000305728001007980000532800000f7800ae
:1022d0002e00900000f90700800078004e0090006a
:1022e000008040000080e800400798001e00900039
:1022f000f9f80700800078004e0090000080400050
:102300000080e800400798001e007800f2f80700ff
:10231000800078004e009000008040004007980048
:102320006c004700ecf80700800078004e00900039
:102330000080400064004000400798003e08900084
:10234000e5f80700800078004e0090000080400013
:102350004007980071004700a2002000ce009000c6
:10236000abf807008040eb003e00900090fe0700b5
:102370007100470011c0b3008dfe070011c0b3000b
:102380002e0090008afe070011c0b3001e009000ce
:1023900087fe07008040eb001e00780084fe0700e7
:1023a0006c00470021c0b30081fe070011c0b300dc
:1023b0003e0890007efe07000080fa000000060044
:1023c0000000fa00803e2000f4050700a059280014
:1023d000a1ff07000080fa00000006000200fa00da
:1023e000803e2000ed0507000ecbbf000080fb0003
:1023f000000f78001e007800e20f50001a00320033
:102400001e007800e20f500007003c001e0078001c
:102410000000e0000e0032001e007800e10f5000c6
:102420000e0032002a0037001e007800e40f500032
:10243000130032001e007800e40f50000d0035003c
:102440001e007800e50f5000100032002000370019
:10245000b0ce280080ff07001d003700c0cf280045
:102460007dff07001a003700e0d028007aff070040
:1024700017003700f0d1280077ff0700140037005d
:1024800010d3280074ff070011003700cacabf002c
:102490008080fb00a200200010a920005cf807004b
:1024a00021d4280010a920006ff80700803e2000ea
:1024b000ba05070010a9200067ff07000040eb00e5
:1024c0000eebb7000040eb000aebb700030037004b
:1024d0000ecbbf000040e8000eebb7000080fa0012
:1024e000000006000000fa00803e2000ab05070057
:1024f00010d5280058ff07000040eb000eebb70096
:102500000040eb000aebb7000080fa000000060074
:102510003600f800809fbe00829fbe00849fbe00f0
:10252000869fbe003400f80000002000a001880053
:102530000600fa001acbbf000004e00002003a00d7
:102540008560a9004a023700d4060700004f7800d2
:102550000bcbbf000080fb00200798002e009000ee
:10256000e30f5000e60032002e009000e30f500011
:102570000a003c002e009000e10f500042003200a3
:102580002e009000e10f50009e003c002e009000b5
:102590000000e0000b0032002b0237002e009000fc
:1025a000ed0f5000290132002e009000ee0f500078
:1025b000710132002e009000ec0f50005f013200dc
:1025c000210237000040eb00eae9b700b0c2b300d7
:1025d0009e4f10000c003a0090cabf00e14f50001f
:1025e00009003a00c09e2000720320008000eb002a
:1025f00016f8070010c0b3000bebb700c0c2b30061
:102600004ceab70010023700f0c4b3009e4f100030
:102610000a003a0090cabf00e24f500007003a009b
:10262000c09e2000720320008000eb0007f8070026
:1026300010c0b3000bebb70003023700b0c2b30009
:102640009e4f100000023a0090cabf00e24f5000b7
:10265000fd013a000040eb000cebb700c09e2000eb
:10266000720320008000eb00f8f7070010c0b300f1
:102670000bebb70080c4b3004beab700f0c2b30065
:102680004ceab700f0013700b0c4b3009e4f100011
:102690000e003a0090cabf00e24f50000b003a0013
:1026a000c1a420009140780000c2b30080cf500048
:1026b0000600320010c0b3000debb7000040eb0085
:1026c0000bebb7008560a900e90137004bcabf00da
:1026d0009e4f10000c003a0090cabf00e24f50001d
:1026e00009003a000ccbbf000004e00006003a00ed
:1026f00010c0b3000cebb7000040eb00eae9b700f4
:102700008560a900da0137004ccabf009e4f100057
:1027100005003200a19e20009140780060c3b30004
:1027200080cf50001700360090cabf00e24f500023
:1027300014003a003200200051d62800c09e20002c
:10274000ebf707000000e0000a003a00d0c0b30039
:102750000bebb7000040eb000cebb70020c7b30059
:102760004beab70030c6b3004ceab7008560a90059
:10277000bf0137000040eb000bebb7008560a900fc
:10278000bb0137004ccabf009e4f1000030032004f
:10279000eac9bf00e34f5000ab01360090cabf004a
:1027a000e14f5000a8013a000040eb00eae9b70011
:1027b0004200200091d62800c09e2000ccf70700e0
:1027c0000000e00007003a0020c0b3000bebb700a8
:1027d000a0c3b3004beab70000c2b3004ceab70095
:1027e000020037000040eb000bebb700c09e20005a
:1027f000720320008000eb0094f707008560a900b9
:102800009b01370090cabf00e14f50000400320026
:102810000040eb000bebb7008560a9009401370086
:102820004bcabf009e4f100009003a000ccbbf00fe
:102830000004e00006003a0010c0b3000cebb70043
:102840000040eb00eae9b7008560a9008801370085
:102850004ccabf009e4f100003003200eac9bf00ff
:10286000e44f5000780136000040eb000cebb7005d
:1028700032002000e1d62800c09e20009cf707000f
:102880000000e00009003a0070c0b3000aebb70096
:1028900030c0b3000bebb700f0c2b3004beab70097
:1028a00000c2b3004ceab7000f003700420020001e
:1028b00021d72800c09e20008df707000000e0000f
:1028c00007003a0030c0b3000bebb700f0c2b30012
:1028d0004beab70000c2b3004ceab7000200370071
:1028e0000040eb000bebb700c09e200072032000fd
:1028f0008000eb0055f707008560a9005c013700f8
:102900004bcabf009e4f100009003a000ccbbf001d
:102910000004e00006003a0010c0b3000cebb70062
:102920000040eb00eae9b7008560a90050013700dc
:102930004ccabf009e4f10000e003a00eac9bf000b
:102940000004e0000b003a000acbbf00e74f500044
:1029500008003a00b0c0b3000aebb7000040eb003b
:102960000bebb7000040eb000cebb7008560a90053
:102970003f0137004ccabf009e4f100003003200d9
:10298000eac9bf00e74f50002f0136000040eb00be
:102990000cebb7006200200071d72800c09e200019
:1029a00053f707000000e00006003a0080c0b300c3
:1029b0000aebb7000040eb000bebb7008560a90005
:1029c0002b01370062002000e1d72800c09e2000c4
:1029d00047f707000000e00006003a0090c0b3008f
:1029e0000aebb7000040eb000bebb7008560a900d5
:1029f0001f0137007200200051d82800c09e20001f
:102a00003bf707000000e0000a003a00d0c0b30026
:102a10000bebb700e0c6b3004beab70040c6b3000b
:102a20004ceab7000040eb000cebb7008560a90052
:102a30000f0137000040eb000aebb7000040eb004d
:102a40000bebb7008560a900090137004bcabf0036
:102a50009e4f10000d003a000ccbbf000004e000b8
:102a60000a003a0010c0b3000cebb700c09e200073
:102a7000720320008000eb00f4f607000040eb003a
:102a8000eae9b7008560a900f90037004ccabf0029
:102a90009e4f100005003200a19e2000914078005a
:102aa00060c3b30080cf5000e70036000040eb0069
:102ab0000cebb700d1d82800c09e20001df70700fe
:102ac0000000e0000800320090cabf00e14f500053
:102ad00005003a0040c2b3004ceab700c0c0b300e2
:102ae0000bebb7001200370011d92800c09e200060
:102af000e9f607000000e0000d003a0090cabf00b0
:102b0000e24f50000a003a00e0c0b3000bebb70000
:102b10000040eb000febb700d0c3b3004beab700a7
:102b200060c2b3004ceab7000040eb000cebb7000a
:102b30000040eb00eae9b700c30037004ccabf0011
:102b40009e4f100005003200a19e200091407800a9
:102b500060c3b30080cf5000bb0036000040eb00e4
:102b60000cebb700a0c0b3000aebb7000040eb00cd
:102b70000bebb700b40037004bcabf009e4f1000ec
:102b80000d003a000ccbbf000004e0000a003a0040
:102b900010c0b3000cebb700c09e200072032000f1
:102ba0008000eb00a9f607000040eb00eae9b7005f
:102bb0008560a900ae00370040c2b3009e4f1000f0
:102bc0000e0032004ccabf009e4f10000b003200b6
:102bd000a19e20009140780060c3b30080cf5000d8
:102be00006003e000fcbbf00e54f500091003a00b9
:102bf00040c2b3009e4f10008e0032000fcbbf00ca
:102c00000080fb00100798001e009000e30f5000aa
:102c10003f0032001e009000e30f50000a003c000d
:102c20001e009000e10f5000110032001e009000c5
:102c3000e10f500018003c001e0090000000e00072
:102c400023003200800037001e009000e50f500086
:102c5000580032001e009000e50f5000440035007f
:102c60001e009000e60f500014003200760037007e
:102c7000c09e20002af6070008ebb700e0c2b300b0
:102c80004ceab7000040eb000cebb70020c0b300eb
:102c90000febb7006c003700c09e2000ec0007006f
:102ca00060c2b3004ceab7000040eb000cebb70089
:102cb00060c0b3000febb700630037000040eb00cb
:102cc0000cebb70030c0b3000febb7005e0037006d
:102cd00081552800c09e20006ff607000000e0002c
:102ce000040032000040eb000bebb7008560a90048
:102cf0005f00370060c2b3004ceab7000040eb0051
:102d00000cebb70010c0b3000febb7004e0037005c
:102d100040c2b3009e4f100004003a000040eb0098
:102d20000bebb7008560a90047003700eac9bf0078
:102d3000e14f500007003600b1a420009140780018
:102d4000b0c3b30080cf500002003200c09e20000c
:102d5000e7000700c0c2b3004ceab7000040eb0038
:102d60000cebb70040c0b3000febb70036003700e4
:102d700040c2b3009e4f100004003a000040eb0038
:102d80000bebb7008560a9002f003700c09e200024
:102d9000e3f5070010ebb7000040eb00eae9b700ed
:102da0000040eb00ebe9b70050c0b3000febb700f9
:102db0002500370040c2b3009e4f100004003a00c7
:102dc0000040eb000bebb7008560a9001e00370048
:102dd00002b1200012417800ebc9bf0080417800a9
:102de0000040e800ebe9b7009e407800034078001f
:102df000c2070700b19e20009140780000c3b300d5
:102e000080cf500010003a00b0c3b3004beab700c7
:102e1000c0c2b3004ceab70030c0b3000febb7003c
:102e20000040eb00ebe9b7000040eb000cebb70013
:102e30000500370040c2b3009e4f100002003a0068
:102e40000040eb000bebb700a39e200093417800fd
:102e50008380fb001e417800c09e2000008040005f
:102e6000024878000340e800eae9b7008560a9005d
:102e70000080fa003400f9004f03be004f02be008c
:102e80004f01be004f00be003600f90000400600b2
:102e90000800fa00881f7800100798004147980042
:102ea000524798005e409000004f78000c003700b9
:102eb0001e80fb00800078001e0090000080400013
:102ec000904078004e40900080cf500003003a00c0
:102ed0001e80fb0030079800080037001e4fe800f6
:102ee0001e84fb001e009000fbf50700800f5400bd
:102ef000efff39000080eb00300798003e009000a3
:102f00004f0478000080fa00000006000400fa0078
:102f10000041eb00d1c3b300c09e2000dcff0700de
:102f20000040e800104798001e41900061c2b300c5
:102f3000c09e2000d6ff0700004f78000040eb0045
:102f400020479800100037002e4090000081fb00c1
:102f50002e4090008080fb001e4090000080fb000f
:102f600080804000c09e200000804000904078009b
:102f700030a2200000004100014878002e4090005f
:102f80000040e800204798002e4090000081fb00a0
:102f90009e80fb001e4090000080fb0000805000df
:102fa000800f5100e8ff35001e4078000040e80027
:102fb00000417800d1c3b300c09e2000b4ff0700d9
:102fc0000040e800104798001e41900041c2b30045
:102fd000c09e2000aeff0700004f78000040eb00cd
:102fe00020479800100037002e4090000081fb0021
:102ff0002e4090008080fb001e4090000080fb006f
:1030000080804000c09e20000080400090407800fa
:1030100070a3200000004100014878002e4090007d
:103020000040e800204798002e4090000081fb00ff
:103030009e80fb001e4090000080fb00008050003e
:10304000800f5100e8ff35000080fa000000060004
:103050000c00fa00881f7800500798000000eb0071
:103060001007980051d928005e009000c8f50700ad
:10307000000f78000e0037001e0490001e0078003c
:1030800027f5070000017800e4004700080044002d
:1030900002b078001e0090000000e80010079800c1
:1030a00051d928000000eb00b9f50700000f7800a7
:1030b0001e00e000f0ff3a0064004700200190008d
:1030c0006400470010029000640047009000780000
:1030d00008cbbf000080fb0082017800040178006b
:1030e000c60207004f0478000080fa0000000600c6
:1030f0000400fa0010079800115628001e009000e6
:10310000a3f50700000f7800070037001e007800c5
:1031100003f50700ae060700115628000000eb007b
:103120009bf50700000f78001e00e000f7ff3a0053
:1031300080c0b30013ebb7000080fa000000060067
:103140000000fa001000200079020700a103070028
:10315000800c2000910207001200200003002000d4
:10316000200120005b000700800c20008b0207007c
:103170000080fa00000006000000fa006011b800ac
:103180002001200053000700800c2000830207006c
:103190000000eb00660207000080fa000000060055
:1031a0000000fa0050c5b300cbeab700a0cab300d4
:1031b000cceab70010c0b300cdeab7000040eb0086
:1031c000ceeab7000080fa00000006000400fa0012
:1031d0000000eb00000f78000040eb002047980053
:1031e0000a0037002e4090008080fb00b0ac200029
:1031f00000804000104078000080fb001e0f40005f
:103200002e4090000040e800204798002e4090009b
:10321000e94f5000f3ff36001e007800d5eab700f2
:103220001e0078004800de00d6eab7000080fa00f1
:10323000000006000600fa000000eb00000f780016
:103240000040eb00204798000a0037002e40900015
:103250008080fb00e0ab2000008040001040780040
:103260000080fb001e0f40002e4090000040e80050
:10327000204798002e409000e94f5000f3ff3600a1
:1032800000f02f001e006000c800de00c9cabf00a9
:103290000080fb00808f500009003a00f00f2000f2
:1032a0009e006000c8cabf000080fb00808f5000f5
:1032b00003003a00100020002007980002003700a9
:1032c0000000eb00200798002e0090000080fa001c
:1032d000000006001400fa0010079800220798006a
:1032e000330798000040eb0016ebb700c50007005d
:1032f0001e009000e0558800a9ff07002e009000f6
:10330000cfeab7002e009000be00900002f02f0020
:10331000030020000002780081027800020078009b
:103320008300780000016200018062006102b80041
:1033300044079800550798004e009000de0090006a
:10334000c000dd00000020004007980051079800f1
:103350004e009000de0090006112b8004407980013
:10336000550798004e019000de01900002007000a9
:1033700083807000c809dd004800de000080710015
:10338000c808de00d0eab7002e009000be00900012
:1033900002002000f30f2000000278008102780074
:1033a0000200780083007800000162000180620062
:1033b0006102b80064079800750798006e009000dd
:1033c000fe009000c000dd000000200060079800b3
:1033d000710798006e009000fe0090006112b80026
:1033e00064079800750798006e019000fe01900038
:1033f00002007000838070004008de0001002000a1
:10340000d1eab7002e009000be009000020020001c
:1034100003f02f000002780081027800020078009b
:103420008300780000016200018062006102b80040
:10343000040f9800150f98000e0890009e08900049
:10344000c000dd0000002000000f9800110f980060
:103450000e0890009e0890006112b800040f9800ba
:10346000150f98000e0990009e0990000200700050
:10347000838070004808de0001002000d2eab70017
:103480001e009000d3eab7001e0090004800de0046
:10349000d4eab7004dff07000040eb00004f780072
:1034a000060037009e80fb00b0ac2000008040008a
:1034b00010407800ed0207001e4fe800b3c0b300d3
:1034c0009ecf1100f7ff3600c0122000b3010700a5
:1034d0000080fa00000006003600f800809fbe0061
:1034e000829fbe00849fbe00869fbe003400f8000d
:1034f00000002000a00188000400fa001acbbf00e1
:103500000004e00002003a0087c0a900350037003f
:1035100001030700004f780014cbbf000000fb0040
:10352000100798001e009000e10f400004003200d8
:103530001e0090000000e000070032000b00370082
:1035400050c5b3009e4f10000800320020c0b300e9
:1035500017ebb70005003700a0cab3009e4f10005c
:103560000200320020c0b30017ebb70014cbbf003d
:10357000ea4f500005003a0000c0eb0014ebb70022
:1035800010c0b30016ebb7000d00370017cbbf001b
:103590000004e0000700320000c0eb0014ebb700ad
:1035a0000040eb0017ebb7000040eb0016ebb70054
:1035b0000300370014cbbf000040e80014ebb70055
:1035c00014cbbf000004e0000500350014cbbf00a1
:1035d0008000fb00e0ab2000008040001e48780027
:1035e00087c0a9000080fa003400f9004f03be0034
:1035f0004f02be004f01be004f00be003600f90072
:10360000004006000200fa000040eb00004f780086
:10361000060037009e80fb00e0ab20008080400069
:103620000040eb00804878001e4fe800b0c0b300b7
:103630009e4f1000f7ff36000080fa0000000600e1
:103640000400fa006000b800008fbe00c5cabf00c9
:103650000080fb00010020001e1f70001e977000fc
:103660001e00be00c808dd000080fd00804078001c
:103670000040eb00008fbe00c4cabf000080fb000a
:10368000010020001e1f70001e9770001e00be006b
:10369000c808dd000080fd00804078000040eb009d
:1036a000008fbe00c3cabf000080fb0001002000e5
:1036b0001e1f70001e9770001e00be00c808dd00af
:1036c0000080fd00804078000040eb00008fbe00cd
:1036d000c2cabf000080fb00010020001e1f700056
:1036e0001e9770001e00be000080fa000000060059
:1036f0000200fa000000eb00000f7800c7cabf000c
:103700000080fb001e0f70001e0078004800dd00e6
:10371000000f7800c6cabf000080fb001e0f7000bb
:103720001e0078000080fa00000006000200fa0087
:10373000004f78001e04e0000c0032000300370048
:103740006011b80060022000e2fe0700bcff070025
:10375000e00f5000e08f5800f9ff3a0007003700f3
:103760006011b80060022000dafe0700b4ff070015
:10377000e00f5000e08f5800f9ff32000080fa009f
:10378000000006000400fa00881f7800acff070064
:10379000000f780061ac20009140780000c3b300b6
:1037a00080cf500016003a001e0478002058800098
:1037b000350107000081fb001003200000c0b900a4
:1037c00082004000108020000080400010407800ff
:1037d0008080fb0008cbbf000080fb00660010006b
:1037e0000088de00610060000004a2000004e00028
:1037f00003003a0040002000100798000200370044
:10380000f00f2000100798001e0090004f04780071
:103810000080fa00000006000000fa00e155800078
:1038200060022000808f500006003a0010c0b300f4
:10383000beff07006011b80000062000a5fe0700cb
:1038400014003700e155800000062000808f5000f2
:1038500006003a006011b800100520009dfe070028
:103860000040eb00c6eab7000a003700e1558000cf
:1038700010052000808f500006003a00c6cabf0025
:103880000004e000fdff3200beff070013ebb700ad
:1038900039fe07000080fa00000006000200fa006e
:1038a00093ff07008000780010032000808f5000f5
:1038b00009003a000bfb07000040eb0015ebb700d6
:1038c0000000eb00e05588000040eb0016ebb7006d
:1038d00029fe07005d003700e1558000200220002e
:1038e000808f500006003a006011b800600220008e
:1038f00078fe070010c0b30012ebb700530037008a
:10390000e155800060022000808f500011003a00d5
:10391000b2fa070012cbbf0084ff070012cbbf0032
:10392000e14f500005003a00120020000300200083
:103930000006200067fe07004400370010c0b300f7
:1039400012ebb7006011b8006002200061fe0700b2
:103950003e003700e155800000062000808f5000b7
:1039600019003a0015cbbf000080fb00000f780063
:103970001e007800e10f50000b0032001e0078009e
:10398000e20f50000c0032001e0078000000e00042
:10399000010032002d0037006011b8003002200015
:1039a0004cfe0700290037006011b80040022000db
:1039b00048fe0700250037006011b80050022000c3
:1039c00044fe070021003700e1558000300220004e
:1039d000808f500004003200e1558000400220003a
:1039e000808f500009003a000040eb0012ebb70056
:1039f00015cbbf000040e80015ebb7006011b80020
:103a00006002200033fe070010003700e1558000ff
:103a100050022000808f50000c003a006ffa07001f
:103a20000040eb0015ebb7000000eb00e05588000c
:103a30000040eb0016ebb700a1ac200091407800ed
:103a40000040eb001f040700cbfd07000080fa00d8
:103a5000000006000000fa00c8a2a800c8c2a80022
:103a6000c9e2a900c9c2a900c982a900c962a90006
:103a70000080fa00000006000200fa00cac2bf007f
:103a80000042b2000004e0000f00320020032000da
:103a900042000700cac2bf000042b2000004e000ba
:103aa000090032000100370000000000cac2bf0058
:103ab0000042b2000004e000fbff3a0010002000ca
:103ac000000f7800020037000000eb00000f7800c4
:103ad0001e0078000080fa00000006000000fa00d6
:103ae000cac2bf000080fb004600de0061406000eb
:103af0000080fb000080fa00000006000200fa00cf
:103b0000004f78001e04e00002003a00cdc2a90078
:103b100001003700cdc2a800cde2a800e00b2000d4
:103b20001e000700cde2a9000080fa000000060098
:103b30000200fa00000f7800100020009e0f100015
:103b400009003a00cd82a800800c20001300070075
:103b50006011b80010002000defd0700401f2000ab
:103b60000e00070001003700cd82a9000080fa0096
:103b7000000006000200fa00000f7800100020008c
:103b80009e0f100002003a00cd62a800010037002d
:103b9000cd62a9000080fa00000006000600fa00cd
:103ba000200798000000eb00000f78000000eb00f9
:103bb000100798000b0037000000eb00000f7800a2
:103bc00002003700000000001e0fe800b05d20007a
:103bd0009e0f1000fbff34001e0090000000e80064
:103be000100798009e0090002e009000808f5000db
:103bf000f1ff39000080fa00000006000800fa001a
:103c0000000f7800110798002207980033079800ea
:103c10009e007800005a20000088b900000178005a
:103c20009e009000c00320000088b9008000410081
:103c30002e0090000080400020588800215880000d
:103c4000b0122000808f5000050036002058800000
:103c500001e22f00010040002058880006003700d4
:103c600021588000c05b220000804000205888005e
:103c700060c0b30008ebb7003e00900001ebb70056
:103c80000080fa00000006000200fa00000f780031
:103c900008cbbf008080fb00005a20000088b900dc
:103ca0001e001000e2012000110009000200d800ef
:103cb0000080fb000080fa00000006000000fa000f
:103cc0000000eb00200888000000eb0000088800de
:103cd000f0cf280010088800510a20009140780099
:103ce000f0c8b30000c060000044a000a5e0b70029
:103cf0008460a9009460a8000000280020088800c3
:103d00000080fa000000060000a0fe003600f80067
:103d1000849fbe00869fbe003400f800040020008f
:103d2000a40188000000fa00c1b120009140780091
:103d300090cdb30080cf500038003a000040eb0037
:103d40001cebb70011b0200091407800c0c3b30055
:103d500080cf500021003a000040eb0001ebb7009b
:103d600091b0200091407800c0c3b30080cf5000d4
:103d700003003a000040eb0009ebb7002a003700cf
:103d800009cbbf000040e80009ebb70021588000d4
:103d900000762200808f500003003a000000eb0004
:103da0002058880003003700205880000000e800f9
:103db000205888002058800092012000110009003e
:103dc0000280d8008000fd000000e00016003a00ec
:103dd0000040eb0000ebb7001300370001cbbf0041
:103de0000040e80001ebb70001cbbf000080fb0002
:103df00042012000110009000280d8008000fd006f
:103e00000004e00008003a000040eb002e0107002b
:103e100010c0b3002c010700030037001ccbbf000b
:103e20000040e8001cebb7008460a9000080fa00a5
:103e30003400f9004f03be004f02be003600f90007
:103e40000080fe00004006000400fa001007980001
:103e50000040eb00004f780001cbbf008080fb00ea
:103e60001e009000c2032000811f7800110009008d
:103e70000280d8000001780001007800cf007800af
:103e800080804000b0032000808f50000e0036007c
:103e900010c0b300004f78001e009000c203200045
:103ea000110009000280d8008000fd0080407800e9
:103eb00001cbbf0080c0400040ccb30000c0400038
:103ec00002ebb700090037001e009000c20320007b
:103ed000110009000280d8008000fd0080407800b9
:103ee00001cbbf0000c0400002ebb7001e009000f5
:103ef000c2032000110009000280d8008000780071
:103f000020588000808040001e80fb000080400020
:103f1000305888000080fa00000006000200fa0015
:103f200011b020009140780002cbbf0080cf50003c
:103f3000070039002158800030588000808f5000e1
:103f40000300390010002000000f78000200370045
:103f50000000eb00000f78001e0078000080fa00df
:103f6000000006000000fa00300320004011880025
:103f7000000028000011880000402800101188006f
:103f800021e2a8002002a90001222000914078002f
:103f900090cfb30000c0600020e2b70020a2a900cb
:103fa0002062a9008560a9002342a80023a2a900dd
:103fb00023e2a90022c2a90022e2a9009560a8007c
:103fc0009580a800e224a900e244a9000080fa003c
:103fd000000006000000fa0030032000c011880035
:103fe00000002800801188000040280090118800ff
:103ff00031e2a8003002a90001232000914078009e
:1040000090cfb30000c0600030e2b70030a2a9003a
:104010003062a90087c0a9003342a80033a2a900da
:1040200033e2a90032c2a90032e2a90097c0a80079
:1040300097e0a8000080fa00000006000200fa00e5
:10404000004f780023c2bf00624060000004e0001f
:10405000fcff3a001e00fb00201188001000200029
:10406000cefe07000080fa00000006000200fa0001
:10407000004f780033c2bf00624060000004e000df
:10408000fcff3a001e80fb00a011880010002000f9
:10409000c2fe07000080fa00000006000400fa00db
:1040a00022c2bf00644060000004e0000300320050
:1040b0000000eb00100798001400370022c2bf0078
:1040c000624060000004e000040032002222a900e7
:1040d0000000eb00100798000c00370022c2bf0060
:1040e000614060000004e000060032002202a900e6
:1040f00030118000004f78001e80fb0010079800f0
:10410000020037000000eb00100798001e0090002e
:104110000080fa00000006000400fa0032c2bf006e
:10412000644060000004e000030032000000eb0087
:10413000100798001400370032c2bf0062406000d0
:104140000004e000040032003222a9000000eb006d
:10415000100798000c00370032c2bf0061406000b9
:104160000004e000060032003202a900b011800015
:10417000004f78001e80fb001007980002003700f7
:104180000000eb00100798001e0090000080fa006d
:10419000000006003400f800881f780008002000a6
:1041a000a80188004f0478000000fa008580a9006b
:1041b0000080fa003400f900004006003400f800e6
:1041c000881f780008002000a80188004f047800ac
:1041d0000000fa0087e0a9000080fa003400f9002e
:1041e000004006000600fa00004f78001e00fb00a9
:1041f0006101b90012079800230798009000200081
:10420000010020001e019000ae019000800f5100bf
:10421000818f59002a003e001e009000ae009000e1
:1042200000600100090037000b0037000d00370067
:104230000f0037001100370013003700150037005a
:1042400017003700190037001b003700c902a9000a
:10425000cd02a8001a003700c922a900cd22a8006b
:1042600017003700c0e2a900c4e2a800140037001c
:10427000c0c2a900c4c2a80011003700c942a900e9
:10428000cd42a8000e003700c982a900cd82a80047
:104290000b003700c9a2a900cda2a8000800370072
:1042a000c9c2a900cdc2a80005003700c9e2a90013
:1042b000cde2a80002003700c002a900c402a80095
:1042c0000080fa00000006000600fa00004f7800a7
:1042d0001e00fb006101b900120798002307980037
:1042e00090002000010020001e019000ae0190000f
:1042f000800f5100818f59002a003e001e0090005f
:10430000ae00900000600100090037000b0037008c
:104310000d0037000f003700110037001300370081
:104320001500370017003700190037001b00370051
:10433000c902a900cd02a9001a003700c922a900ac
:10434000cd22a90017003700c0e2a900c4e2a900ed
:1043500014003700c0c2a900c4c2a9001100370070
:10436000c942a900cd42a9000e003700c982a900a8
:10437000cd82a9000b003700c9a2a900cda2a900d7
:1043800008003700c9c2a900cdc2a9000500370046
:10439000c9e2a900cde2a90002003700c002a900cd
:1043a000c402a9000080fa00000006000600fa001e
:1043b000004f78001e00fb006101b9001207980051
:1043c0002307980090002000010020001e019000ab
:1043d000ae019000800f5100818f59009e003e0079
:1043e0001e009000ae009000006001000900370040
:1043f00015003700240037002f0037003e0037003b
:104400004d0037005c0037006b0037007a00370042
:1044100085003700c902a900cdc2bf00614060001d
:104420000004a2006140600061416000d12c2000c6
:1044300091407800e0cfb30000c0600002407000ff
:10444000cde2b70084003700c922a900cdc2bf0069
:104450000080fb000000d100614060000004a20069
:10446000614060006140600000414000d12c2000ac
:1044700091407800d0cfb30000c0600002407000cf
:10448000cde2b70074003700c0e2a900c4c2bf008b
:104490000080fb004700de000004a20061406000d5
:1044a000c700dd00c4c2bf000074a100014070005d
:1044b000c4e2b70068003700c0c2a900c4c2bf0090
:1044c0000080fb004600de00614060000004a200a6
:1044d00061406000614060004601dd00412c200029
:1044e00091407800f0cbb30000c060000240700043
:1044f000c4e2b70058003700c942a900cdc2bf00ce
:104500000080fb004200de00614060000004a20069
:1045100061406000614060004201dd00d12c20005c
:1045200091407800b0cfb30000c06000024070003e
:10453000cde2b70048003700c982a900cdc2bf0054
:104540000080fb004400de00614060000004a20027
:1045500061406000614060004401dd00d12c20001a
:1045600091407800f0ceb30000c0600002407000bf
:10457000cde2b70038003700c9a2a900cdc2bf0004
:104580000080fb004500de00614060000004a200e6
:1045900061406000614060004501dd00d12c2000d9
:1045a00091407800f0cdb30000c060000240700080
:1045b000cde2b70028003700c9c2a900cdc2bf00b4
:1045c0000080fb004600de00614060000004a200a5
:1045d00061406000614060004601dd00d12c200098
:1045e00091407800f0cbb30000c060000240700042
:1045f000cde2b70018003700c9e2a900cdc2bf0064
:104600000080fb004700de000004a2006140600063
:10461000c700dd00cdc2bf000074a10001407000e2
:10462000cde2b7000c003700c002a900c4c2bf0031
:10463000614060000004a2006140600061416000d0
:10464000412c200091407800e0cfb30000c0600012
:1046500002407000c4e2b7000080fa0000000600cb
:104660000000fa00c902a900cd02a900c922a900d0
:10467000cd22a900c0e2a900c4e2a900c0c2a900dd
:10468000c4c2a900c002a900c402a9000080fa00a7
:10469000000006000800fa00f901070000003700da
:1046a0000efd07000004e0000500320030c0b3003a
:1046b000ccfe07000040eb0018ebb700020037000b
:1046c00030c0b30000ff0700ebfc07000004e0006f
:1046d0000c00320001fd07000004e000030032007e
:1046e00010c0b3001ef507000600370094fa07005b
:1046f00010c0b30013ebb7006011b80060022000d7
:10470000f4fa07000acbbf000080fb0030079800d6
:104710003e009000e90f50002c003200be009000d7
:10472000e98f500004003c003e009000e80f50006c
:104730001400320039003700be009000ea8f5000ac
:10474000290032003e009000eb0f500001003200c3
:1047500032003700e1fc07000004e00002003200f4
:1047600017f707000200370080d92800baf60700c3
:104770000040eb000aebb7000040eb000bebb7008a
:10478000490037000040eb000aebb70020c0b3003f
:1047900013ebb7000ecbbf000004e00042003a006c
:1047a0003b010700caeab70065fa0700cacabf00a2
:1047b0000080fb00100798001e0090006101b90006
:1047c00020022000c3fa0700370037000040eb004a
:1047d0000aebb7006011b80010042000bdfa070012
:1047e000a500070030003700c8f9070000fa2000d4
:1047f000eafc070020c0b300d9f40700803e200087
:10480000e6fc070090f5070010c0b30000ebb7000e
:104810000040eb000aebb7002300370018cbbf00c5
:104820000004e0000b003a00acfc07000004e000cc
:1048300008003a003000200083fd070050c0b3009c
:1048400013ebb70010c0b30016ebb70010c0b300f5
:1048500018ebb70020588000e20120001100090089
:104860000280d8008000fd000000e0000e003a0049
:1048700000cbbf000004e0000b003a0020c0b300f2
:10488000b7f40700803e2000c4fc07006ef5070067
:1048900010c0b30000ebb700401f2000bffc0700b2
:1048a0000000eb00b3fc070016cbbf00e14f500047
:1048b0007bff3a000000eb00000f780013cbbf0035
:1048c0000080fb0020079800ae009000e48f5000ad
:1048d000430032002e009000e40f50000a003c001c
:1048e000ae009000e28f5000230032002e009000b6
:1048f000e20f500022003c00ae009000e18f50001b
:104900001b00320066ff37002e009000e70f5000ba
:104910000f003200ae009000e78f500004003c0012
:104920002e009000e50f5000390032005cff370088
:10493000ae009000e88f500020003200f00f200001
:10494000ae009000808f50004300320054ff3700cb
:1049500062fc07000004e00051ff3a005000200014
:1049600039fd070050c0b30013ebb7004cff370010
:10497000a9fb07004aff3700c8fb070048ff3700c4
:104980006011b8001004200052fa070044ff3700fd
:104990009e00780060af200000804000104078004a
:1049a0000081fb00030020001e0fe800000420002f
:1049b00048fa0700800c200078fc07009e00780071
:1049c00060af20000080400010407800e14f4000c0
:1049d000efff3a000040eb0013ebb70030ff370069
:1049e0001fff070010c0b300fefd070050002000ad
:1049f00015fd070050c0b30013ebb7000040eb00fb
:104a00003efc07000040eb0018ebb70024ff370026
:104a100032fc07000004e0000300320070c0b30065
:104a200013ebb7001eff37003cfd07000004e00059
:104a30001bff32000000eb004efc070010c0b3006b
:104a40002efc070010c0b30018ebb7000040eb00cd
:104a500013ebb70012ff370001ff07000040eb0027
:104a6000e0fd07000040eb0013ebb7000040eb0057
:104a700016ebb7000aff37000000fa0000802000a4
:104a8000120320008000eb00f0ee07000200070098
:104a90000080fa00000006000000fa00a2002000da
:104aa000f10f2000c0ae2000e8ee0700a2002000b9
:104ab000f10f200060af2000e4ee07000080fa0054
:104ac000000006000a00fa002047980031479800cd
:104ad0003e4090008080fb00100320000088b90059
:104ae0008000780000802000008040001014a000aa
:104af0003e4090000080fb00300798002e40900060
:104b0000004f98008e4890000104e000020032003f
:104b100013c0b300034f98000e499000100320000b
:104b2000be0190000098b90080007800008020004d
:104b30000080400061416100e1cfb30010c8600017
:104b4000104871003e4090008080fb001003200060
:104b50000088b900800078000080200000804000bc
:104b60000000e80002032000f10f2000b7ee07006c
:104b70000040eb00004f78009e80fb00c0ae20009c
:104b800000804000104078008040eb0041479800d2
:104b9000e14f40000200320013c0b30043479800c9
:104ba0001e4fe8004e4090000004e000f2ff3a0083
:104bb0001e80fb008000e900c0ae200000804000a5
:104bc000be409000014878000080fa000000060016
:104bd0000400fa00204798002e4090008080fb00df
:104be000100320000088b9008000780000802000b9
:104bf000008040001080fb000000d1006140600098
:104c0000e14f50000a003a002e4090008080fb00e7
:104c1000100320000088b900800078000080200088
:104c200000804000120320008000eb0087ee0700a8
:104c30000040eb00004f78009e80fb0060af20003a
:104c400000804000104078008040eb003147980021
:104c5000e14f40000200320010c0b300304798001e
:104c60001e4fe800be4090000104e000f2ff3a0051
:104c70001e80fb008000e90060af20000080400043
:104c8000ae409000014878000080fa000000060065
:104c90000400fa000040eb00004f78000f003700de
:104ca0009e80fb00100320000088b900800078007f
:104cb00000802000008040001080fb000000d10038
:104cc000614060000004e00003003a001e80fb0029
:104cd00010079800060037001e4fe80090c0b30090
:104ce0009e4f1000eeff3600f00f200010079800d6
:104cf0001e0090000080fa00000006000400fa0088
:104d0000004f780011479800224798002e409000ed
:104d10008080fb001e81fb00100320000088b9008a
:104d20008200400010802000008040009e409000e3
:0c4d3000014878000080fa000000060036
:020000040000fa
:104d3c00180b000002000000020000000000000040
:104d4c00d80a000014000000000000001a0b00003c
:104d5c00020000000200000000000000ec0a00004d
:104d6c001400000002000000ff0000000000000022
:104d7c000000000000ff0000000000000000000028
:104d8c000000000000080000ea0100000000000024
:104d9c00120b000006000000020000000100ff00e2
:104dac0000000000bc0a00001c0000000000000015
:104dbc00000b00000a0000000200000001000000cf
:104dcc000000000000000000010000001c0b0000af
:104ddc0002000000000000000a0b000008000000a8
:104dec00020000000000000000000000ff000000b6
:104dfc00ea090000d2000000000000001e0b0000b9
:0c4e0c0002000000000000000000000098
:020000040000fa
:104e18000000fa008020a900ffff37000000fa0018
:104e28008060a900ffff37000000fa008040a90059
:104e3800ffff37000000fa008080a900ffff37005d
:104e48000000fa008020a900ffff37000000fa00e8
:104e58008060a900ffff37000000fa008040a90029
:104e6800ffff37000000fa008080a900ffff37002d
:104e78000000fa00ffff37000000fa000040eb00d6
:104e880048fd070010c0b30046fd0700803e200023
:104e980040fb07000040eb0042fd070010c0b300d4
:104ea80040fd070010c0b3001aebb700e7fa07008f
:104eb80080fb070010c0b30027f30700ecfe0700d3
:104ec8009df807006011b80010042000fff80700e3
:104ed800a7f807000080fa00000006000000fa00aa
:084ee8000080fa000000060042
:00000001FF
